{
  "_format": "hh-sol-artifact-1",
  "contractName": "BitcoinSocket",
  "sourceName": "contracts/bitcoinSocket/BitcoinSocket.sol",
  "abi": [
    {
      "inputs": [
        {
          "internalType": "bytes20",
          "name": "_code_hash",
          "type": "bytes20"
        }
      ],
      "stateMutability": "nonpayable",
      "type": "constructor"
    },
    {
      "anonymous": false,
      "inputs": [
        {
          "indexed": false,
          "internalType": "address",
          "name": "previousAdmin",
          "type": "address"
        },
        {
          "indexed": false,
          "internalType": "address",
          "name": "newAdmin",
          "type": "address"
        }
      ],
      "name": "AdminChanged",
      "type": "event"
    },
    {
      "anonymous": false,
      "inputs": [
        {
          "indexed": true,
          "internalType": "address",
          "name": "beacon",
          "type": "address"
        }
      ],
      "name": "BeaconUpgraded",
      "type": "event"
    },
    {
      "anonymous": false,
      "inputs": [
        {
          "indexed": false,
          "internalType": "uint8",
          "name": "version",
          "type": "uint8"
        }
      ],
      "name": "Initialized",
      "type": "event"
    },
    {
      "anonymous": false,
      "inputs": [
        {
          "indexed": true,
          "internalType": "address",
          "name": "target",
          "type": "address"
        },
        {
          "indexed": true,
          "internalType": "enum Ownable_State.OwnableAuth",
          "name": "auth",
          "type": "uint8"
        }
      ],
      "name": "RemoveAuth",
      "type": "event"
    },
    {
      "anonymous": false,
      "inputs": [
        {
          "indexed": true,
          "internalType": "address",
          "name": "target",
          "type": "address"
        },
        {
          "indexed": true,
          "internalType": "enum Ownable_State.OwnableAuth",
          "name": "auth",
          "type": "uint8"
        }
      ],
      "name": "SetAuth",
      "type": "event"
    },
    {
      "anonymous": false,
      "inputs": [
        {
          "components": [
            {
              "components": [
                {
                  "internalType": "ChainIndex",
                  "name": "chain",
                  "type": "bytes4"
                },
                {
                  "internalType": "uint64",
                  "name": "round_id",
                  "type": "uint64"
                },
                {
                  "internalType": "uint128",
                  "name": "sequence",
                  "type": "uint128"
                }
              ],
              "internalType": "struct Socket_Struct.RequestID",
              "name": "req_id",
              "type": "tuple"
            },
            {
              "internalType": "enum Socket_Struct.Task_Status",
              "name": "status",
              "type": "uint8"
            },
            {
              "components": [
                {
                  "internalType": "ChainIndex",
                  "name": "chain",
                  "type": "bytes4"
                },
                {
                  "internalType": "RBCmethod",
                  "name": "method",
                  "type": "bytes16"
                }
              ],
              "internalType": "struct Socket_Struct.Instruction",
              "name": "ins_code",
              "type": "tuple"
            },
            {
              "components": [
                {
                  "internalType": "Asset_Index",
                  "name": "tokenIDX0",
                  "type": "bytes32"
                },
                {
                  "internalType": "Asset_Index",
                  "name": "tokenIDX1",
                  "type": "bytes32"
                },
                {
                  "internalType": "address",
                  "name": "refund",
                  "type": "address"
                },
                {
                  "internalType": "address",
                  "name": "to",
                  "type": "address"
                },
                {
                  "internalType": "uint256",
                  "name": "amount",
                  "type": "uint256"
                },
                {
                  "internalType": "bytes",
                  "name": "variants",
                  "type": "bytes"
                }
              ],
              "internalType": "struct Socket_Struct.Task_Params",
              "name": "params",
              "type": "tuple"
            }
          ],
          "indexed": false,
          "internalType": "struct Socket_Struct.Socket_Message",
          "name": "msg",
          "type": "tuple"
        }
      ],
      "name": "Socket",
      "type": "event"
    },
    {
      "anonymous": false,
      "inputs": [
        {
          "indexed": true,
          "internalType": "address",
          "name": "owner_from",
          "type": "address"
        },
        {
          "indexed": true,
          "internalType": "address",
          "name": "owner_to",
          "type": "address"
        }
      ],
      "name": "TransferOwnership",
      "type": "event"
    },
    {
      "anonymous": false,
      "inputs": [
        {
          "indexed": true,
          "internalType": "address",
          "name": "implementation",
          "type": "address"
        }
      ],
      "name": "Upgraded",
      "type": "event"
    },
    {
      "stateMutability": "payable",
      "type": "fallback"
    },
    {
      "inputs": [],
      "name": "BFC_MAIN",
      "outputs": [
        {
          "internalType": "ChainIndex",
          "name": "",
          "type": "bytes4"
        }
      ],
      "stateMutability": "view",
      "type": "function"
    },
    {
      "inputs": [],
      "name": "BTC_ON_BTC",
      "outputs": [
        {
          "internalType": "Asset_Index",
          "name": "",
          "type": "bytes32"
        }
      ],
      "stateMutability": "view",
      "type": "function"
    },
    {
      "inputs": [],
      "name": "ZeroAddress",
      "outputs": [
        {
          "internalType": "address",
          "name": "",
          "type": "address"
        }
      ],
      "stateMutability": "view",
      "type": "function"
    },
    {
      "inputs": [
        {
          "internalType": "uint256",
          "name": "",
          "type": "uint256"
        }
      ],
      "name": "admins",
      "outputs": [
        {
          "internalType": "address",
          "name": "",
          "type": "address"
        }
      ],
      "stateMutability": "view",
      "type": "function"
    },
    {
      "inputs": [
        {
          "internalType": "address",
          "name": "",
          "type": "address"
        }
      ],
      "name": "auth_field_table",
      "outputs": [
        {
          "internalType": "bytes32",
          "name": "",
          "type": "bytes32"
        }
      ],
      "stateMutability": "view",
      "type": "function"
    },
    {
      "inputs": [],
      "name": "authority",
      "outputs": [
        {
          "internalType": "contract IAuthority",
          "name": "",
          "type": "address"
        }
      ],
      "stateMutability": "view",
      "type": "function"
    },
    {
      "inputs": [],
      "name": "claimAdminship",
      "outputs": [
        {
          "internalType": "bool",
          "name": "",
          "type": "bool"
        }
      ],
      "stateMutability": "nonpayable",
      "type": "function"
    },
    {
      "inputs": [],
      "name": "claimOwnership",
      "outputs": [
        {
          "internalType": "bool",
          "name": "",
          "type": "bool"
        }
      ],
      "stateMutability": "nonpayable",
      "type": "function"
    },
    {
      "inputs": [],
      "name": "code_hash",
      "outputs": [
        {
          "internalType": "bytes20",
          "name": "",
          "type": "bytes20"
        }
      ],
      "stateMutability": "view",
      "type": "function"
    },
    {
      "inputs": [],
      "name": "feeConfig",
      "outputs": [
        {
          "internalType": "uint128",
          "name": "min_amount",
          "type": "uint128"
        },
        {
          "internalType": "uint128",
          "name": "max_amount",
          "type": "uint128"
        },
        {
          "internalType": "uint256",
          "name": "rate",
          "type": "uint256"
        }
      ],
      "stateMutability": "view",
      "type": "function"
    },
    {
      "inputs": [],
      "name": "flag_up",
      "outputs": [
        {
          "internalType": "bytes32",
          "name": "",
          "type": "bytes32"
        }
      ],
      "stateMutability": "view",
      "type": "function"
    },
    {
      "inputs": [
        {
          "internalType": "bytes32",
          "name": "txHash",
          "type": "bytes32"
        },
        {
          "internalType": "uint256",
          "name": "index",
          "type": "uint256"
        },
        {
          "internalType": "address",
          "name": "to",
          "type": "address"
        },
        {
          "internalType": "uint256",
          "name": "amount",
          "type": "uint256"
        }
      ],
      "name": "getHashKey",
      "outputs": [
        {
          "internalType": "bytes32",
          "name": "",
          "type": "bytes32"
        }
      ],
      "stateMutability": "pure",
      "type": "function"
    },
    {
      "inputs": [],
      "name": "get_admins",
      "outputs": [
        {
          "internalType": "address[]",
          "name": "",
          "type": "address[]"
        }
      ],
      "stateMutability": "view",
      "type": "function"
    },
    {
      "inputs": [
        {
          "internalType": "address",
          "name": "_target",
          "type": "address"
        }
      ],
      "name": "get_flag",
      "outputs": [
        {
          "internalType": "bytes32",
          "name": "",
          "type": "bytes32"
        }
      ],
      "stateMutability": "view",
      "type": "function"
    },
    {
      "inputs": [],
      "name": "get_owners",
      "outputs": [
        {
          "internalType": "address[]",
          "name": "",
          "type": "address[]"
        }
      ],
      "stateMutability": "view",
      "type": "function"
    },
    {
      "inputs": [],
      "name": "get_pendingAdmins",
      "outputs": [
        {
          "internalType": "address[]",
          "name": "",
          "type": "address[]"
        }
      ],
      "stateMutability": "view",
      "type": "function"
    },
    {
      "inputs": [],
      "name": "get_pendingOwners",
      "outputs": [
        {
          "internalType": "address[]",
          "name": "",
          "type": "address[]"
        }
      ],
      "stateMutability": "view",
      "type": "function"
    },
    {
      "inputs": [],
      "name": "init",
      "outputs": [],
      "stateMutability": "nonpayable",
      "type": "function"
    },
    {
      "inputs": [
        {
          "internalType": "bytes32",
          "name": "hashKey",
          "type": "bytes32"
        },
        {
          "internalType": "address",
          "name": "relayer",
          "type": "address"
        }
      ],
      "name": "isRelayerVoted",
      "outputs": [
        {
          "internalType": "bool",
          "name": "",
          "type": "bool"
        }
      ],
      "stateMutability": "view",
      "type": "function"
    },
    {
      "inputs": [],
      "name": "maxAmount",
      "outputs": [
        {
          "internalType": "uint256",
          "name": "",
          "type": "uint256"
        }
      ],
      "stateMutability": "view",
      "type": "function"
    },
    {
      "inputs": [
        {
          "internalType": "uint256",
          "name": "",
          "type": "uint256"
        }
      ],
      "name": "owners",
      "outputs": [
        {
          "internalType": "address",
          "name": "",
          "type": "address"
        }
      ],
      "stateMutability": "view",
      "type": "function"
    },
    {
      "inputs": [
        {
          "internalType": "uint256",
          "name": "",
          "type": "uint256"
        }
      ],
      "name": "pendingAdmins",
      "outputs": [
        {
          "internalType": "address",
          "name": "",
          "type": "address"
        }
      ],
      "stateMutability": "view",
      "type": "function"
    },
    {
      "inputs": [
        {
          "internalType": "uint256",
          "name": "",
          "type": "uint256"
        }
      ],
      "name": "pendingOwners",
      "outputs": [
        {
          "internalType": "address",
          "name": "",
          "type": "address"
        }
      ],
      "stateMutability": "view",
      "type": "function"
    },
    {
      "inputs": [
        {
          "internalType": "bytes32",
          "name": "txHash",
          "type": "bytes32"
        },
        {
          "internalType": "uint256",
          "name": "index",
          "type": "uint256"
        },
        {
          "internalType": "address",
          "name": "to",
          "type": "address"
        },
        {
          "internalType": "uint256",
          "name": "amount",
          "type": "uint256"
        }
      ],
      "name": "poll",
      "outputs": [],
      "stateMutability": "nonpayable",
      "type": "function"
    },
    {
      "inputs": [
        {
          "internalType": "address",
          "name": "target",
          "type": "address"
        }
      ],
      "name": "registerAdmin",
      "outputs": [
        {
          "internalType": "bool",
          "name": "",
          "type": "bool"
        }
      ],
      "stateMutability": "nonpayable",
      "type": "function"
    },
    {
      "inputs": [
        {
          "internalType": "address",
          "name": "target",
          "type": "address"
        }
      ],
      "name": "registerOwner",
      "outputs": [
        {
          "internalType": "bool",
          "name": "",
          "type": "bool"
        }
      ],
      "stateMutability": "nonpayable",
      "type": "function"
    },
    {
      "inputs": [
        {
          "internalType": "address",
          "name": "target",
          "type": "address"
        }
      ],
      "name": "registerPendingAdmin",
      "outputs": [
        {
          "internalType": "bool",
          "name": "",
          "type": "bool"
        }
      ],
      "stateMutability": "nonpayable",
      "type": "function"
    },
    {
      "inputs": [
        {
          "internalType": "address",
          "name": "target",
          "type": "address"
        }
      ],
      "name": "registerPendingOwner",
      "outputs": [
        {
          "internalType": "bool",
          "name": "",
          "type": "bool"
        }
      ],
      "stateMutability": "nonpayable",
      "type": "function"
    },
    {
      "inputs": [],
      "name": "renounceAdminship",
      "outputs": [
        {
          "internalType": "bool",
          "name": "",
          "type": "bool"
        }
      ],
      "stateMutability": "nonpayable",
      "type": "function"
    },
    {
      "inputs": [
        {
          "internalType": "bool",
          "name": "force",
          "type": "bool"
        }
      ],
      "name": "renounceOwnership",
      "outputs": [
        {
          "internalType": "bool",
          "name": "",
          "type": "bool"
        }
      ],
      "stateMutability": "nonpayable",
      "type": "function"
    },
    {
      "inputs": [],
      "name": "renouncePendingAdmin",
      "outputs": [
        {
          "internalType": "bool",
          "name": "",
          "type": "bool"
        }
      ],
      "stateMutability": "nonpayable",
      "type": "function"
    },
    {
      "inputs": [],
      "name": "renouncePendingOwner",
      "outputs": [
        {
          "internalType": "bool",
          "name": "",
          "type": "bool"
        }
      ],
      "stateMutability": "nonpayable",
      "type": "function"
    },
    {
      "inputs": [
        {
          "internalType": "address",
          "name": "target",
          "type": "address"
        }
      ],
      "name": "revokeAdmin",
      "outputs": [
        {
          "internalType": "bool",
          "name": "",
          "type": "bool"
        }
      ],
      "stateMutability": "nonpayable",
      "type": "function"
    },
    {
      "inputs": [
        {
          "internalType": "address",
          "name": "target",
          "type": "address"
        }
      ],
      "name": "revokeOwner",
      "outputs": [
        {
          "internalType": "bool",
          "name": "",
          "type": "bool"
        }
      ],
      "stateMutability": "nonpayable",
      "type": "function"
    },
    {
      "inputs": [],
      "name": "sequence",
      "outputs": [
        {
          "internalType": "uint128",
          "name": "",
          "type": "uint128"
        }
      ],
      "stateMutability": "view",
      "type": "function"
    },
    {
      "inputs": [
        {
          "internalType": "address",
          "name": "_authority",
          "type": "address"
        }
      ],
      "name": "setAuthority",
      "outputs": [],
      "stateMutability": "nonpayable",
      "type": "function"
    },
    {
      "inputs": [
        {
          "internalType": "Asset_Index",
          "name": "_index",
          "type": "bytes32"
        }
      ],
      "name": "setBTC_ON_BTC",
      "outputs": [],
      "stateMutability": "nonpayable",
      "type": "function"
    },
    {
      "inputs": [
        {
          "internalType": "ChainIndex",
          "name": "_chain",
          "type": "bytes4"
        }
      ],
      "name": "setChain",
      "outputs": [],
      "stateMutability": "nonpayable",
      "type": "function"
    },
    {
      "inputs": [
        {
          "components": [
            {
              "internalType": "uint128",
              "name": "min_amount",
              "type": "uint128"
            },
            {
              "internalType": "uint128",
              "name": "max_amount",
              "type": "uint128"
            },
            {
              "internalType": "uint256",
              "name": "rate",
              "type": "uint256"
            }
          ],
          "internalType": "struct Vault_Struct.AmountCheckConfig",
          "name": "_config",
          "type": "tuple"
        }
      ],
      "name": "setFeeConfig",
      "outputs": [],
      "stateMutability": "nonpayable",
      "type": "function"
    },
    {
      "inputs": [
        {
          "internalType": "uint256",
          "name": "_amount",
          "type": "uint256"
        }
      ],
      "name": "setMaxAmount",
      "outputs": [],
      "stateMutability": "nonpayable",
      "type": "function"
    },
    {
      "inputs": [
        {
          "internalType": "address",
          "name": "_impl",
          "type": "address"
        }
      ],
      "name": "set_1967impl",
      "outputs": [],
      "stateMutability": "nonpayable",
      "type": "function"
    },
    {
      "inputs": [
        {
          "internalType": "bytes20",
          "name": "_code_hash",
          "type": "bytes20"
        }
      ],
      "name": "set_code_hash",
      "outputs": [],
      "stateMutability": "nonpayable",
      "type": "function"
    },
    {
      "inputs": [
        {
          "internalType": "address",
          "name": "_admin",
          "type": "address"
        }
      ],
      "name": "set_proxyAdmin",
      "outputs": [],
      "stateMutability": "nonpayable",
      "type": "function"
    },
    {
      "inputs": [],
      "name": "this_chain",
      "outputs": [
        {
          "internalType": "ChainIndex",
          "name": "",
          "type": "bytes4"
        }
      ],
      "stateMutability": "view",
      "type": "function"
    },
    {
      "inputs": [],
      "name": "totalFee",
      "outputs": [
        {
          "internalType": "uint256",
          "name": "",
          "type": "uint256"
        }
      ],
      "stateMutability": "view",
      "type": "function"
    },
    {
      "inputs": [
        {
          "internalType": "address",
          "name": "target",
          "type": "address"
        }
      ],
      "name": "transferOwnership",
      "outputs": [
        {
          "internalType": "bool",
          "name": "",
          "type": "bool"
        }
      ],
      "stateMutability": "nonpayable",
      "type": "function"
    },
    {
      "inputs": [
        {
          "internalType": "bytes32",
          "name": "",
          "type": "bytes32"
        }
      ],
      "name": "txs",
      "outputs": [
        {
          "internalType": "address",
          "name": "to",
          "type": "address"
        },
        {
          "internalType": "uint256",
          "name": "amount",
          "type": "uint256"
        },
        {
          "internalType": "uint256",
          "name": "voteCount",
          "type": "uint256"
        },
        {
          "components": [
            {
              "internalType": "ChainIndex",
              "name": "chain",
              "type": "bytes4"
            },
            {
              "internalType": "uint64",
              "name": "round_id",
              "type": "uint64"
            },
            {
              "internalType": "uint128",
              "name": "sequence",
              "type": "uint128"
            }
          ],
          "internalType": "struct Socket_Struct.RequestID",
          "name": "requestId",
          "type": "tuple"
        }
      ],
      "stateMutability": "view",
      "type": "function"
    },
    {
      "stateMutability": "payable",
      "type": "receive"
    }
  ],
  "bytecode": "0x60806040523480156200001157600080fd5b506040516200311538038062003115833981016040819052620000349162000390565b6000805462010000600160b01b03191662010000606084901c02179055806200005c62000064565b505062000427565b600054610100900460ff1615808015620000855750600054600160ff909116105b80620000b55750620000a2306200027560201b62001b951760201c565b158015620000b5575060005460ff166001145b6200011e5760405162461bcd60e51b815260206004820152602e60248201527f496e697469616c697a61626c653a20636f6e747261637420697320616c72656160448201526d191e481a5b9a5d1a585b1a5e995960921b60648201526084015b60405180910390fd5b6000805460ff19166001179055801562000142576000805461ff0019166101001790555b6200014f33600362000284565b6002805460018082019092557f405787fa12a823e0f2b7631cc41b3ba8828b3321ca811111fa75cd3aa3bb5ace0180546001600160a01b03199081163317909155600380548084019091557fc2575a0e9e593c00f959f8c92f12db2869c3395a3b0502d05e2516446f71f85b01805482169055600480548084019091557f8a35acfbc15ff81a39ae7d344fd709f28e8600b4aa8c65c6b64bfe7fe36bd19b018054821690556005805492830181556000527f036b6384b5eca791c62761152d0c79bb0604c104a5fb6f4eb0703f3154bb3db090910180549091169055801562000272576000805461ff0019169055604051600181527f7f26b83ff96e1f2b6a682f133852f6798a09c465da95921460cefb38474024989060200160405180910390a15b50565b6001600160a01b03163b151590565b6001600160a01b038216600090815260016020526040902054620002a9818362000342565b15620002ed5760405162461bcd60e51b8152602060048201526012602482015271636f6e666c696374206175746820666c616760701b604482015260640162000115565b816004811115620003025762000302620003c3565b6200030f906008620003d9565b6001600160a01b0390931660009081526001602052604090206001600160f81b031960ff949094169390931c1790915550565b60006001600160f81b031983836004811115620003635762000363620003c3565b60ff166020811062000379576200037962000411565b1a60f81b6001600160f81b03191614905092915050565b600060208284031215620003a357600080fd5b81516001600160601b031981168114620003bc57600080fd5b9392505050565b634e487b7160e01b600052602160045260246000fd5b600060ff821660ff84168160ff04811182151516156200040957634e487b7160e01b600052601160045260246000fd5b029392505050565b634e487b7160e01b600052603260045260246000fd5b612cde80620004376000396000f3fe60806040526004361061030c5760003560e01c80637e926b4b1161019a578063be19d11f116100e1578063d92e233d1161008a578063e1c7392a11610064578063e1c7392a14610a47578063e45deb9814610a5c578063f2fde38b14610a7c5761031b565b8063d92e233d146109fd578063dd420fa014610a12578063dfbe0ece14610a275761031b565b8063c462342c116100bb578063c462342c146109a8578063cc22678e146109c8578063cf2fd14d146109dd5761031b565b8063be19d11f14610953578063bf7e214f14610968578063c38c5813146109885761031b565b806393e548bf11610143578063a4298ab61161011d578063a4298ab6146108e8578063a58edf09146108fd578063a762eb8c1461091d5761031b565b806393e548bf146107b5578063986ba392146107d55780639bed25d8146108d35761031b565b80638818024e116101745780638818024e1461074c57806389c06cb7146107685780638b35c07a146107955761031b565b80637e926b4b146106b55780637f2d00bd146106d55780638794b69d146107375761031b565b80632f2ba2c31161025e57806356d2cad2116102075780636d151101116101e15780636d151101146106555780636daadb11146106755780637a9e5e4b146106955761031b565b806356d2cad214610609578063592e8f2e1461061f5780635f48f3931461063f5761031b565b80634e71e0c8116102385780634e71e0c81461059c5780634fe47f70146105b1578063529d15cc146105d15761031b565b80632f2ba2c3146105235780633c12375e146105455780633e5e5411146105835761031b565b80631e10b201116102c05780632708d2a21161029a5780632708d2a2146104a45780632be3968f146104b95780632d345670146105035761031b565b80631e10b201146103f45780631e5eb1d01461042e578063249d8fba146104845761031b565b80631220c6ed116102f15780631220c6ed1461038057806314bfd6d0146103b05780631df4ccfc146103d05761031b565b8063025e7c271461032357806308391f70146103605761031b565b3661031b57610319610a9c565b005b610319610a9c565b34801561032f57600080fd5b5061034361033e3660046127c8565b610aae565b6040516001600160a01b0390911681526020015b60405180910390f35b34801561036c57600080fd5b5061031961037b3660046127f8565b610ad8565b34801561038c57600080fd5b506103a061039b366004612835565b610efb565b6040519015158152602001610357565b3480156103bc57600080fd5b506103436103cb3660046127c8565b610f61565b3480156103dc57600080fd5b506103e6600b5481565b604051908152602001610357565b34801561040057600080fd5b5060065461041590600160a01b900460e01b81565b6040516001600160e01b03199091168152602001610357565b34801561043a57600080fd5b5060085460095461045e916001600160801b0380821692600160801b909204169083565b604080516001600160801b03948516815293909216602084015290820152606001610357565b34801561049057600080fd5b5061031961049f366004612867565b610f71565b3480156104b057600080fd5b506103a0610fda565b3480156104c557600080fd5b506103a06104d43660046128dd565b6000828152600d602090815260408083206001600160a01b038516845260040190915290205460ff1692915050565b34801561050f57600080fd5b506103a061051e366004612835565b611054565b34801561052f57600080fd5b506105386110a5565b6040516103579190612909565b34801561055157600080fd5b506000546105659062010000900460601b81565b6040516bffffffffffffffffffffffff199091168152602001610357565b34801561058f57600080fd5b506104156102ff60e21b81565b3480156105a857600080fd5b506103a0611107565b3480156105bd57600080fd5b506103196105cc3660046127c8565b61117b565b3480156105dd57600080fd5b50600a546105f1906001600160801b031681565b6040516001600160801b039091168152602001610357565b34801561061557600080fd5b506103e660075481565b34801561062b57600080fd5b5061031961063a366004612956565b6111c2565b34801561064b57600080fd5b506103e6600c5481565b34801561066157600080fd5b506103a0610670366004612835565b611240565b34801561068157600080fd5b50610319610690366004612835565b61129a565b3480156106a157600080fd5b506103196106b0366004612835565b6112e8565b3480156106c157600080fd5b506103a06106d036600461298e565b61134c565b3480156106e157600080fd5b506103e66106f03660046127f8565b60408051602080820196909652808201949094526001600160a01b039290921660608401526080808401919091528151808403909101815260a09092019052805191012090565b34801561074357600080fd5b50610538611424565b34801561075857600080fd5b506103e66001600160f81b031981565b34801561077457600080fd5b506103e6610783366004612835565b60016020526000908152604090205481565b3480156107a157600080fd5b506103196107b0366004612835565b611484565b3480156107c157600080fd5b506103196107d03660046127c8565b6114cf565b3480156107e157600080fd5b506108766107f03660046127c8565b600d60209081526000918252604091829020805460018201546002830154855160608101875260039094015460e081901b6001600160e01b0319168552640100000000810467ffffffffffffffff16958501959095526c010000000000000000000000009094046001600160801b0316948301949094526001600160a01b031692919084565b604080516001600160a01b0390951685526020808601949094528481019290925280516001600160e01b03191660608501529182015167ffffffffffffffff16608084015201516001600160801b031660a082015260c001610357565b3480156108df57600080fd5b506103a0611516565b3480156108f457600080fd5b5061053861157c565b34801561090957600080fd5b506103436109183660046127c8565b6115dc565b34801561092957600080fd5b506103e6610938366004612835565b6001600160a01b031660009081526001602052604090205490565b34801561095f57600080fd5b506103a06115ec565b34801561097457600080fd5b50600654610343906001600160a01b031681565b34801561099457600080fd5b506103a06109a3366004612835565b611643565b3480156109b457600080fd5b506103196109c33660046129ab565b611694565b3480156109d457600080fd5b506103a0611779565b3480156109e957600080fd5b506103a06109f8366004612835565b6117d0565b348015610a0957600080fd5b50610343600081565b348015610a1e57600080fd5b5061053861182a565b348015610a3357600080fd5b50610343610a423660046127c8565b61188a565b348015610a5357600080fd5b5061031961189a565b348015610a6857600080fd5b506103a0610a77366004612835565b611a98565b348015610a8857600080fd5b506103a0610a97366004612835565b611af2565b610aac610aa7611ba4565b611bb3565b565b60028181548110610abe57600080fd5b6000918252602090912001546001600160a01b0316905081565b6006546040517f976a75f10000000000000000000000000000000000000000000000000000000081523360048201526001600160a01b039091169063976a75f190602401602060405180830381865afa158015610b39573d6000803e3d6000fd5b505050506040513d601f19601f82011682018060405250810190610b5d91906129da565b610bae5760405162461bcd60e51b815260206004820152600c60248201527f6f6e6c792072656c61796572000000000000000000000000000000000000000060448201526064015b60405180910390fd5b6040805160208082018790528183018690526001600160a01b038516606083015260808083018590528351808403909101815260a090920183528151918101919091206000908152600d825282812033825260048101909252919091205460ff1615610c5c5760405162461bcd60e51b815260206004820152601560248201527f72656c6179657220616c726561647920766f74656400000000000000000000006044820152606401610ba5565b3360009081526004820160205260408120805460ff1916600117905560028201805491610c8883612a0d565b91905055508060010154600003610d25576008546001600160801b031682118015610cb55750600c548211155b610d015760405162461bcd60e51b815260206004820152600c60248201527f616d6f756e7420636865636b00000000000000000000000000000000000000006044820152606401610ba5565b80546001600160a01b0319166001600160a01b038416178155600101819055610ef5565b60038101546c0100000000000000000000000090046001600160801b031615610d905760405162461bcd60e51b815260206004820152601360248201527f747820616c7265616479206578656375746564000000000000000000000000006044820152606401610ba5565b6006546040517fd2ea63fb000000000000000000000000000000000000000000000000000000008152600160048201526000916001600160a01b03169063d2ea63fb90602401602060405180830381865afa158015610df3573d6000803e3d6000fd5b505050506040513d601f19601f82011682018060405250810190610e179190612a26565b905080826002015410610ef2576000610e308585611bdc565b8051805160038601805460208401516040948501516001600160801b03166c01000000000000000000000000027fffffffff00000000000000000000000000000000ffffffffffffffffffffffff67ffffffffffffffff909216640100000000026bffffffffffffffffffffffff1990931660e09590951c949094179190911716919091179055519091507f918454f530580823dd0d8cf59cacb45a6eb7cc62f222d7129efba5821e77f19190610ee8908390612aee565b60405180910390a1505b50505b50505050565b6000610f09335b6003611cf7565b610f425760405162461bcd60e51b815260206004820152600a60248201526927b7363c9027bbb732b960b11b6044820152606401610ba5565b610f4b82611d21565b610f586002836003611d79565b5060015b919050565b60048181548110610abe57600080fd5b610f7a33610f02565b610fb35760405162461bcd60e51b815260206004820152600a60248201526927b7363c9027bbb732b960b11b6044820152606401610ba5565b805160208201516001600160801b03908116600160801b0291161760085560400151600955565b6000610fe8335b6002611cf7565b6110345760405162461bcd60e51b815260206004820152601260248201527f4f6e6c792050656e64696e672041646d696e00000000000000000000000000006044820152606401610ba5565b6110416004336001611d79565b61104e6005336002611de1565b50600190565b600061105f33610f02565b6110985760405162461bcd60e51b815260206004820152600a60248201526927b7363c9027bbb732b960b11b6044820152606401610ba5565b610f586004836001611de1565b606060058054806020026020016040519081016040528092919081815260200182805480156110fd57602002820191906000526020600020905b81546001600160a01b031681526001909101906020018083116110df575b5050505050905090565b6000611115335b6004611cf7565b6111615760405162461bcd60e51b815260206004820152601260248201527f4f6e6c792050656e64696e67204f776e657200000000000000000000000000006044820152606401610ba5565b61116e6002336003611d79565b61104e6003336004611de1565b61118433610f02565b6111bd5760405162461bcd60e51b815260206004820152600a60248201526927b7363c9027bbb732b960b11b6044820152606401610ba5565b600c55565b6111cb33610f02565b6112045760405162461bcd60e51b815260206004820152600a60248201526927b7363c9027bbb732b960b11b6044820152606401610ba5565b6006805460e09290921c600160a01b027fffffffffffffffff00000000ffffffffffffffffffffffffffffffffffffffff909216919091179055565b600061124b33610f02565b6112845760405162461bcd60e51b815260206004820152600a60248201526927b7363c9027bbb732b960b11b6044820152606401610ba5565b61128d82611d21565b610f586002836003611de1565b6112a333610f02565b6112dc5760405162461bcd60e51b815260206004820152600a60248201526927b7363c9027bbb732b960b11b6044820152606401610ba5565b6112e581611e49565b50565b6112f133610f02565b61132a5760405162461bcd60e51b815260206004820152600a60248201526927b7363c9027bbb732b960b11b6044820152606401610ba5565b600680546001600160a01b0319166001600160a01b0392909216919091179055565b600061135733610f02565b6113905760405162461bcd60e51b815260206004820152600a60248201526927b7363c9027bbb732b960b11b6044820152606401610ba5565b816114165760006001600160a01b031660036000815481106113b4576113b4612bbd565b6000918252602090912001546001600160a01b0316036114165760405162461bcd60e51b815260206004820181905260248201527f666174616c3a205468657265206973206e6f2070656e64696e67206f776e65726044820152606401610ba5565b610f586002335b6003611de1565b606060048054806020026020016040519081016040528092919081815260200182805480156110fd576020028201919060005260206000209081546001600160a01b031681526001909101906020018083116110df575050505050905090565b61148d33610f02565b6114c65760405162461bcd60e51b815260206004820152600a60248201526927b7363c9027bbb732b960b11b6044820152606401610ba5565b6112e581611e89565b6114d833610f02565b6115115760405162461bcd60e51b815260206004820152600a60248201526927b7363c9027bbb732b960b11b6044820152606401610ba5565b600755565b6000611523336001611cf7565b61156f5760405162461bcd60e51b815260206004820152600a60248201527f4f6e6c792041646d696e000000000000000000000000000000000000000000006044820152606401610ba5565b61104e6004336001611de1565b606060028054806020026020016040519081016040528092919081815260200182805480156110fd576020028201919060005260206000209081546001600160a01b031681526001909101906020018083116110df575050505050905090565b60058181548110610abe57600080fd5b60006115f73361110e565b61116e5760405162461bcd60e51b815260206004820152601260248201527f4f6e6c792050656e64696e67204f776e657200000000000000000000000000006044820152606401610ba5565b600061164e33610f02565b6116875760405162461bcd60e51b815260206004820152600a60248201526927b7363c9027bbb732b960b11b6044820152606401610ba5565b610f586004836001611d79565b61169d33610f02565b6116d65760405162461bcd60e51b815260206004820152600a60248201526927b7363c9027bbb732b960b11b6044820152606401610ba5565b60005462010000900460601b6bffffffffffffffffffffffff19161561173e5760405162461bcd60e51b815260206004820152600960248201527f6f6e6c79206f6e636500000000000000000000000000000000000000000000006044820152606401610ba5565b6000805460609290921c62010000027fffffffffffffffffffff0000000000000000000000000000000000000000ffff909216919091179055565b600061178433610fe1565b6110415760405162461bcd60e51b815260206004820152601260248201527f4f6e6c792050656e64696e672041646d696e00000000000000000000000000006044820152606401610ba5565b60006117db33610f02565b6118145760405162461bcd60e51b815260206004820152600a60248201526927b7363c9027bbb732b960b11b6044820152606401610ba5565b61181d82611d21565b610f586003836004611d79565b606060038054806020026020016040519081016040528092919081815260200182805480156110fd576020028201919060005260206000209081546001600160a01b031681526001909101906020018083116110df575050505050905090565b60038181548110610abe57600080fd5b600054610100900460ff16158080156118ba5750600054600160ff909116105b806118d45750303b1580156118d4575060005460ff166001145b6119465760405162461bcd60e51b815260206004820152602e60248201527f496e697469616c697a61626c653a20636f6e747261637420697320616c72656160448201527f647920696e697469616c697a65640000000000000000000000000000000000006064820152608401610ba5565b6000805460ff191660011790558015611969576000805461ff0019166101001790555b611974336003611edd565b6002805460018082019092557f405787fa12a823e0f2b7631cc41b3ba8828b3321ca811111fa75cd3aa3bb5ace0180546001600160a01b03199081163317909155600380548084019091557fc2575a0e9e593c00f959f8c92f12db2869c3395a3b0502d05e2516446f71f85b01805482169055600480548084019091557f8a35acfbc15ff81a39ae7d344fd709f28e8600b4aa8c65c6b64bfe7fe36bd19b018054821690556005805492830181556000527f036b6384b5eca791c62761152d0c79bb0604c104a5fb6f4eb0703f3154bb3db09091018054909116905580156112e5576000805461ff0019169055604051600181527f7f26b83ff96e1f2b6a682f133852f6798a09c465da95921460cefb38474024989060200160405180910390a150565b6000611aa333610f02565b611adc5760405162461bcd60e51b815260206004820152600a60248201526927b7363c9027bbb732b960b11b6044820152606401610ba5565b611ae582611d21565b610f586005836002611d79565b6000611afd33610f02565b611b365760405162461bcd60e51b815260206004820152600a60248201526927b7363c9027bbb732b960b11b6044820152606401610ba5565b611b3f82611d21565b611b4a60023361141d565b611b576002836003611d79565b6040516001600160a01b0383169033907f5c486528ec3e3f0ea91181cff8116f02bfa350e03b8b6f12e00765adbb5af85c90600090a3506001919050565b6001600160a01b03163b151590565b6000611bae611f9d565b905090565b3660008037600080366000845af43d6000803e808015611bd2573d6000f35b3d6000fd5b505050565b6040805160e0810182526000608080830182815260a080850184905260c08086018590529185526020808601859052865180880188528581528082018690528688015286519283018752848352820184905294810183905260608181018490529181019290925292810183905291810191909152611c58611fd0565b815260016020808301919091526040805180820182526102ff60e21b81527f03010102000000000000000000000000000000000000000000000000000000008184015281840152805160c08101825260075481526000928101929092526001600160a01b038516908201819052606082015260808101611cd7846120f1565b815260408051602081810190925260008152910152606082015292915050565b6001600160a01b038216600090815260016020526040812054611d1a90836121dc565b9392505050565b336001600160a01b038216036112e55760405162461bcd60e51b815260206004820152600960248201527f417574682053656c6600000000000000000000000000000000000000000000006044820152606401610ba5565b611d828261223c565b611d8c8282611edd565b611d968383612292565b806004811115611da857611da8612a3f565b6040516001600160a01b038416907f16648684a169742a8946057cc0e413441c39b8c40d8a0b329547a5b58d0fad3390600090a3505050565b611dea8261223c565b611df48282612340565b611dfe8383612405565b806004811115611e1057611e10612a3f565b6040516001600160a01b038416907f4c122a44c01f7baedf7841724cfb4cecb281d5d9f46ddfe8bcace2d9d121fb5a90600090a3505050565b611e528161244f565b6040516001600160a01b038216907fbc7cd75a20ee27fd9adebab32041f755214dbc6bffa90cc0225b39da2e5c2d3b90600090a250565b7f7e644d79422f17c01e4894b5f4f588d331ebfa28653d42ae832dc59e38c9798f611eb2612510565b604080516001600160a01b03928316815291841660208301520160405180910390a16112e581612538565b6001600160a01b038216600090815260016020526040902054611f0081836121dc565b15611f4d5760405162461bcd60e51b815260206004820152601260248201527f636f6e666c696374206175746820666c616700000000000000000000000000006044820152606401610ba5565b816004811115611f5f57611f5f612a3f565b611f6a906008612bd3565b6001600160a01b0390931660009081526001602052604090206001600160f81b031960ff949094169390931c1790915550565b60007f360894a13ba1a3210667c828492db98dca3e2076cc3735a920a3ca505d382bbc5b546001600160a01b0316919050565b6040805160608101825260008082526020820181905291810191909152604080516060810182526006546001600160e01b0319600160a01b820460e01b16825282517f6f31dd98000000000000000000000000000000000000000000000000000000008152925191926020808501936001600160a01b0390931692636f31dd989260048082019392918290030181865afa158015612072573d6000803e3d6000fd5b505050506040513d601f19601f820116820180604052508101906120969190612a26565b63ffffffff168152600a80546020909201916000906120bd906001600160801b0316612bfc565b91906101000a8154816001600160801b0302191690836001600160801b0316021790556001600160801b0316815250905090565b600080670de0b6b3a76400006008600101548461210e9190612c22565b6121189190612c41565b6008549091506001600160801b031681101561213c57506008546001600160801b03165b600854600160801b90046001600160801b031681111561216b5750600854600160801b90046001600160801b03165b8083116121ba5760405162461bcd60e51b815260206004820152600760248201527f73756220666565000000000000000000000000000000000000000000000000006044820152606401610ba5565b80600b60008282546121cc9190612c63565b90915550611d1a90508184612c7b565b60006001600160f81b0319838360048111156121fa576121fa612a3f565b60ff166020811061220d5761220d612bbd565b1a60f81b7effffffffffffffffffffffffffffffffffffffffffffffffffffffffffffff191614905092915050565b6001600160a01b0381166112e55760405162461bcd60e51b815260206004820152600b60248201527f5a65726f416464726573730000000000000000000000000000000000000000006044820152606401610ba5565b60006001600160a01b0316826000815481106122b0576122b0612bbd565b6000918252602090912001546001600160a01b0316036123105780826000815481106122de576122de612bbd565b9060005260206000200160006101000a8154816001600160a01b0302191690836001600160a01b031602179055505050565b81546001810183556000838152602090200180546001600160a01b0319166001600160a01b0383161790555b5050565b6001600160a01b03821660009081526001602052604090205461236381836121dc565b6123af5760405162461bcd60e51b815260206004820152600f60248201527f6e6f7420666c61676564206175746800000000000000000000000000000000006044820152606401610ba5565b8160048111156123c1576123c1612a3f565b6123cc906008612bd3565b6001600160a01b0393909316600090815260016020526040902080546001600160f81b031960ff9095169490941c199093169092555050565b6124468282846001868054905061241c9190612c7b565b8154811061242c5761242c612bbd565b6000918252602090912001546001600160a01b03166125db565b61233c826126a0565b6001600160a01b0381163b6124cc5760405162461bcd60e51b815260206004820152602d60248201527f455243313936373a206e657720696d706c656d656e746174696f6e206973206e60448201527f6f74206120636f6e7472616374000000000000000000000000000000000000006064820152608401610ba5565b807f360894a13ba1a3210667c828492db98dca3e2076cc3735a920a3ca505d382bbc5b80546001600160a01b0319166001600160a01b039290921691909117905550565b60007fb53127684a568b3173ae13b9f8a6016e243e63b6e8ee1178d6a717850b5d6103611fc1565b6001600160a01b0381166125b45760405162461bcd60e51b815260206004820152602660248201527f455243313936373a206e65772061646d696e20697320746865207a65726f206160448201527f64647265737300000000000000000000000000000000000000000000000000006064820152608401610ba5565b807fb53127684a568b3173ae13b9f8a6016e243e63b6e8ee1178d6a717850b5d61036124ef565b806001600160a01b0316826001600160a01b0316036125fe57611bd78383612724565b825460005b8181101561269957836001600160a01b031685828154811061262757612627612bbd565b6000918252602090912001546001600160a01b031603612687578285828154811061265457612654612bbd565b9060005260206000200160006101000a8154816001600160a01b0302191690836001600160a01b03160217905550612699565b8061269181612a0d565b915050612603565b5050505050565b80546001036126ef576000816000815481106126be576126be612bbd565b9060005260206000200160006101000a8154816001600160a01b0302191690836001600160a01b0316021790555050565b808054806126ff576126ff612c92565b600082815260209020810160001990810180546001600160a01b031916905501905550565b815460005b8181101561277f57826001600160a01b031684828154811061274d5761274d612bbd565b6000918252602090912001546001600160a01b03160361276d5750505050565b8061277781612a0d565b915050612729565b5060405162461bcd60e51b815260206004820152600b60248201527f6e6f7420636f6e7461696e0000000000000000000000000000000000000000006044820152606401610ba5565b6000602082840312156127da57600080fd5b5035919050565b80356001600160a01b0381168114610f5c57600080fd5b6000806000806080858703121561280e57600080fd5b8435935060208501359250612825604086016127e1565b9396929550929360600135925050565b60006020828403121561284757600080fd5b611d1a826127e1565b80356001600160801b0381168114610f5c57600080fd5b60006060828403121561287957600080fd5b6040516060810181811067ffffffffffffffff821117156128aa57634e487b7160e01b600052604160045260246000fd5b6040526128b683612850565b81526128c460208401612850565b6020820152604083013560408201528091505092915050565b600080604083850312156128f057600080fd5b82359150612900602084016127e1565b90509250929050565b6020808252825182820181905260009190848201906040850190845b8181101561294a5783516001600160a01b031683529284019291840191600101612925565b50909695505050505050565b60006020828403121561296857600080fd5b81356001600160e01b031981168114611d1a57600080fd5b80151581146112e557600080fd5b6000602082840312156129a057600080fd5b8135611d1a81612980565b6000602082840312156129bd57600080fd5b81356bffffffffffffffffffffffff1981168114611d1a57600080fd5b6000602082840312156129ec57600080fd5b8151611d1a81612980565b634e487b7160e01b600052601160045260246000fd5b600060018201612a1f57612a1f6129f7565b5060010190565b600060208284031215612a3857600080fd5b5051919050565b634e487b7160e01b600052602160045260246000fd5b8051825260006020808301518185015260408301516001600160a01b03808216604087015280606086015116606087015250506080830151608085015260a083015160c060a086015280518060c087015260005b81811015612ac55782810184015187820160e001528301612aa9565b81811115612ad757600060e083890101525b50601f01601f19169490940160e001949350505050565b60208152612b3160208201835180516001600160e01b031916825260208082015167ffffffffffffffff16908301526040908101516001600160801b0316910152565b60006020830151600b8110612b5657634e487b7160e01b600052602160045260246000fd5b6080830152604083015180516001600160e01b03191660a0840152602001517fffffffffffffffffffffffffffffffff000000000000000000000000000000001660c0830152606083015160e080840152612bb5610100840182612a55565b949350505050565b634e487b7160e01b600052603260045260246000fd5b600060ff821660ff84168160ff0481118215151615612bf457612bf46129f7565b029392505050565b60006001600160801b03808316818103612c1857612c186129f7565b6001019392505050565b6000816000190483118215151615612c3c57612c3c6129f7565b500290565b600082612c5e57634e487b7160e01b600052601260045260246000fd5b500490565b60008219821115612c7657612c766129f7565b500190565b600082821015612c8d57612c8d6129f7565b500390565b634e487b7160e01b600052603160045260246000fdfea26469706673582212201429e85fe57eb19ce9d04396cc105a8b113e85ae41221dba674f0b51074c7b8064736f6c634300080d0033",
  "linkReferences": {},
  "deployedLinkReferences": {}
}